:020000040800F2
:1000000008360020C10100087F4700081B3B00089C
:100010007D4700087B170008A95300080000000076
:10002000000000000000000000000000B94E0008C1
:10003000F51C000800000000714E0008694F000820
:10004000DB010008DB010008DB010008DB01000820
:10005000DB010008DB010008DB010008DB01000810
:10006000DB010008DB010008DB010008DB01000800
:10007000DB010008DB010008DB010008DB010008F0
:10008000DB010008DB010008DB010008DB010008E0
:10009000DB010008DB010008DB010008DB010008D0
:1000A000DB010008E94F0008DB010008DB01000864
:1000B000F54F0008DB010008DB010008DB01000848
:1000C000DB010008DB010008DB010008DB010008A0
:1000D000DB01000865530008DB01000871530008CC
:1000E000DB010008DB010008DB01000800F002F87A
:1000F00000F056F80AA090E8000C82448344AAF16C
:100100000107DA4501D100F04BF8AFF2090EBAE869
:100110000F0013F0010F18BFFB1A43F0010318473B
:100120004C8300006C830000103A24BF78C878C16B
:10013000FAD8520724BF30C830C144BF04680C60ED
:10014000704700000023002400250026103A28BF35
:1001500078C1FBD8520728BF30C148BF0B60704739
:10016000662906F07B85642900F0B080752900F0CF
:10017000AD80732900F03585002070471FB500F071
:1001800079FD04000020002105F0ACFD401C6060FA
:100190000020002105F090FDE0601FBD10B510BDEE
:1001A00000F0B4FE1146FFF7E9FF05F029F900F071
:1001B000E0FE03B4FFF7F2FF03BC00F0E3FE000033
:1001C0000948804709480047FEE7FEE7FEE7FEE7EB
:1001D000FEE7FEE7FEE7FEE7FEE7FEE70448054927
:1001E000054A064B70470000E54F0008ED00000887
:1001F0000830002008360020083200200832002095
:100200000FB41CB5084B06AA7B44694600900598BC
:1002100000F0BDFC04460020694600F0CBFC2046FF
:100220001CBC5DF814FB0000A909000070B5044671
:1002300085690068C10601D5302600E02026C00788
:1002400007D070BDD4E9012130469047206A401C98
:1002500020626D1EF6D570BD70B5044685690078C4
:10026000C00707D170BDD4E9012120209047206A42
:10027000401C20626D1EF6D570BD70B50C4605465B
:10028000012A05D02878800600D5EA69002302E01B
:10029000012305E05B1C934202D2E05C0028F9D107
:1002A000A869E618C01AA861286A18442862284676
:1002B000FFF7BCFF04E0D5E9012114F8010B9047DA
:1002C000B442F8D32846FFF7C7FF70BD2DE9F041CF
:1002D0000646002410687529314616A510D0AFF3E4
:1002E0000080002802DA404213A507E031688A073F
:1002F00001D512A502E0490704D511A5012401E0AA
:10030000AFF3008000210A2206F1240709E0B0FBC8
:10031000F2FCB0FBF2F302FB1C00303078541846BC
:10032000491C0028F3D123462A463046BDE8F04157
:1003300000F0C0B9000000002D0000002B000000FC
:10034000200000002DE9F05F894604464FF0000AC6
:10035000DFF874B1FB44C0F820A02046E16888476C
:10036000002874D0252806D0D4E901219047206ABE
:10037000401C2062F1E700265F462046E16888477E
:100380002028054607DB312D05D2781910F8200CFE
:1003900008B10643F1E7B00701D526F00406C4F81A
:1003A0001CA00027C4F818A02A2D09D0284605F063
:1003B00020F838B304EB8708303DC8F8185019E02E
:1003C00059F8041B204604EB87029161E1688847D5
:1003D000012F054618D1E069002820DA26F0200612
:1003E0001DE0D8F8180000EB800005EB4000303825
:1003F000C8F818002046E1688847054604F0F9FF70
:100400000028EED1012F0AD02E2D08D12046E16818
:1004100088477F1C0546022F46F02006C4DBA069F2
:10042000002803DA404246F00106A061F00701D03F
:1004300026F010066C2D0BD0682D09D04C2D39D02C
:100440006A2D35D0742D35D07A2D33D016E038E0B2
:10045000E1682F4620468847B842054609D16C2FEF
:1004600026D04FF48060E168064320468847054661
:1004700004E06C2F1AD04FF4807006430DB3A5F141
:100480004100192802D8203546F400664A4629461C
:10049000204626604E46FFF763FE80B101280BD050
:1004A000F61D26F0070000F1080956E74020E4E7B2
:1004B0008020D8E70020D6E706F104094DE728465A
:1004C00052E7206ABDE8F09F747F000070B50646D1
:1004D00000F0ECF80468054630460A22002100F0DE
:1004E00084FB2C6070BD30B505460B462A4613F8D8
:1004F000014B12F8010B08B1A042F8D01CB1002842
:1005000002D06D1CF1E7284630BD40EA01030246E7
:1005100030B59B0710D14FF0013400E008C208C984
:100520001D1B9D4315EAC41FF8D013F0FF0102F80C
:10053000011B0DD01B0AF8E711F8013B002B02F854
:10054000013B05D011F8013B002B02F8013BF3D130
:1005500030BD10B5431C02E010F8011B71B18107DA
:10056000FAD14FF0013202C88C1A8C4314EAC2113E
:10057000F9D0C01A0A0603D0C01E10BDC01A10BDA3
:100580000A0401D0801E10BD0902FCD0401E10BD1F
:100590004FF000020429C0F0128010F0030C00F0AC
:1005A0001B80CCF1040CBCF1020F18BF00F8012B2A
:1005B000A8BF20F8022BA1EB0C0100F00DB85FEAF8
:1005C000C17C24BF00F8012B00F8012B48BF00F8C4
:1005D000012B70474FF0000200B513469446964633
:1005E000203922BFA0E80C50A0E80C50B1F1200146
:1005F000BFF4F7AF090728BFA0E80C5048BF0CC0F4
:100600005DF804EB890028BF40F8042B08BF704751
:1006100048BF20F8022B11F0804F18BF00F8012BC3
:10062000704700004FF0013C50F8042B51F8043B98
:100630009A4221D1A2EB0C03934313EACC1317D1B6
:1006400050F8042B51F8043B9A4215D1A2EB0C034D
:10065000934313EACC130BD150F8042B51F8043B0D
:100660009A4209D1A2EB0C03934313EACC13DBD0DB
:100670004FF00000704700BFD01A01BAB1FA81F103
:1006800001F0180122FA01F0CB40C1F12001DBB2E8
:10069000C0B2C01A2CFA01F3D11A914311EAC31166
:1006A000E6D17047704770477047000000487047B8
:1006B000A82F00202DE9F0470D46994692460446A2
:1006C00000F124080168880604D5E06921F01001D2
:1006D000216000E00120A84201DD471B00E0002767
:1006E000A1697A1902EB0900081AA0612078C006F6
:1006F00002D42046FFF79AFD002608E0D4E9012144
:100700001AF806009047206A401C761C20624E456D
:10071000F4DB2078C0060AD52046FFF787FD06E007
:10072000D4E9012130209047206A401C2062381E05
:10073000A7F10107F4DC07E0D4E9012118F805006E
:100740009047206A401C2062281EA5F10105F3DCB9
:100750002046FFF781FD2078000602D50220BDE883
:10076000F0870120FBE770472DE9FF4F0C461E463E
:100770004FF0FF378BB0D2E90001DDF860800A90BE
:100780008A46C1F30A5505B93D46002108464FF097
:100790000000BAF1000F00F4400005DA00EB800021
:1007A0004FF4400101EA50004FEA9059B9F1010FAE
:1007B00000DDB9460A9850EA4A000ED044F61050BF
:1007C000A5F2FF3545432F14B8F1000F1ED0754236
:1007D000291E1EDDC9F100021CE0B8F1010F4FF027
:1007E000000001D0302103E0F24305E02154401C19
:1007F000B042FBDB30460022002121540B99C1F8A6
:100800000880C1E900200FB0BDE8F08FBD1B6D1C52
:10081000DEE74A4600DA694206A800F005FB06ABAF
:1008200093E8070003AB83E8070050460A9900F0FD
:10083000B0FB8DE80700A0F500501F38009003982A
:10084000002D0ADD42F21F014A460844002303A995
:100850000390684600F019FE09E0A0F500504A46F2
:100860001F38002303A90390684600F023FE8DE89B
:1008700007000004000C03D04FF0FF30410800E0F7
:100880001046B8F1000F03D00022009215461EE07A
:10089000751E05D400F0F2F9303262556D1EF9D59F
:1008A000B3460122084302D000227F1C04E02078D6
:1008B000302801D100227F1E002A099784D01DE034
:1008C000112D07DA00F0DAF9303262556D1C50EA6A
:1008D0000102F5D1084302D00098C8B10EE0002112
:1008E000681E05E0235C625C63542254401E491C70
:1008F0008142F7DBAB46A81B401E0990002004F89C
:100900000B000B98099AC0F80880C0E9002B7AE721
:1009100011264FF0000857E72DE9F04F88460446AE
:10092000D21D22F0070191B0D1E90001CDE90A0101
:1009300004F03BFD02460B98C00F01D02D2007E0CC
:100940002068810701D52B2002E0202101EAC000A8
:10095000032A099001D0072A05DB034641462046B9
:1009600000F0D2F90BE12078800601D5E06900E0C3
:100970000620B8F1650F814606D0B8F1660F18D091
:10098000B8F1670F70D131E00020B9F1110F00907C
:1009900001DB112301E009F101030AAA01A90CA856
:1009A000FFF7E2FEDDE90C70002609F10105834640
:1009B00047E001204B4600904FF000470AAA01A9EA
:1009C0000CA8FFF7D1FEDDE90DB00C995D460026BD
:1009D00010B909F101000D18B9EB050003D4C0F1FD
:1009E000FF3609F10105A5EB09002BE0B9F1010F74
:1009F00001DA4FF001090020B9F1110F00904846CB
:100A000001DD112300E003460AAA01A90CA8FFF7A3
:100A1000ABFEDDE90C704D460026834620780007CA
:100A20000AD4AB4500DA5D4601A8012D04DD411969
:100A300011F8011C302907D04F4502DA17F1040FD5
:100A400004DA012082460FE06D1EEEE7002F02DC83
:100A5000ED1B3E4403E0781CA84200DD7D1CB81B62
:100A600000F1010A4FF000472078000703D4AA459F
:100A700001DB4FF0FF3A0021B7F1004F0DF14308C1
:100A80008DF8431024D002202B23002F01DA7F425F
:100A90002D230A21021EA0F1010000DC5FB197FBAB
:100AA000F1FC97FBF1F201FB1C7C17460CF1300CBA
:100AB00008F801CDEEE7A8F10100037021880905CF
:100AC00001D5452100E06521A0F1010800F8011CD5
:100AD00009980FA9A1EB0807FF1D00B101204119DA
:100AE00001EBEA70A1693844081A401EA061207821
:100AF000C00602D42046FFF799FB099828B1D4E933
:100B000001219047206A401C20622078C00622D52F
:100B10002046FFF78BFB1EE0002E04DBB34502DD11
:100B200001A8805D00E03020D4E901219047206ACF
:100B3000401C2062761CAAF101005FEA000A0AD17B
:100B400000F098F8C0680168405CD4E90121904742
:100B5000206A401C2062281EA5F10105DCDC07E0AC
:100B6000D4E9012118F8010B9047206A401C20624B
:100B7000381EA7F10107F3DC2046FFF76DFB0320C9
:100B800011B041E601694A1C02610878704700B55E
:100B90008FB0CDE901310021059105497944CDE9B6
:100BA000031011466846FFF7CDFB0FB000BD0000F3
:100BB000E5FFFFFF0A6802F8010B0A60704710B5F5
:100BC000436913B1AFF3008001E0FFF756FB01204A
:100BD00010BD127800F124010A7000224A7001222F
:100BE000EDE711684FF0FF32E9E72DE9F047914654
:100BF0000F4680460446002614F8015B2DB100F034
:100C000031F80068405DC007F6D12B2D02D02D2DA4
:100C100018D0641E4A463946204600F0B5F827B180
:100C20003968A14201D1C7F800804FF00204710574
:100C30000BD54042002803DDFFF738FD0460A00714
:100C4000BDE8F08746F48066E4E70028F8DAFFF7AD
:100C50002DFD04606FF00040F2E70000004870478F
:100C6000A82F002010B500F005F8001D10BD00BF32
:100C70007550000000487047C82F002030B5B0F113
:100C80000A024FEA900E71F100034EEA817EB0EB4A
:100C90000E0061EB91014FEA101E4EEA017E10EB4F
:100CA0000E0041EB11114FEA102E4EEA016E10EBCF
:100CB0000E0041EB11214FEA104E4EEA014E10EBAF
:100CC0000E0041EB1141401841F100014FEAD00004
:100CD00040EA41704FEAD10110EB80054FEA8104F0
:100CE00044EA907444EB01046D1944EB0404521B74
:100CF000A3414FF0000348BF0A3200D530BD401C6D
:100D000041F1000130BD00002DE9F0411F460446CD
:100D100003260168072A01F4006004DB08B116A568
:100D200005E016A503E008B115A500E015A521F022
:100D300010002060A069C01EA0610FB1401EA0611C
:100D40002046FFF773FA4FB1D4E9012138469047A6
:100D5000206A401C2062C01C206206E0206AFAE77C
:100D6000D4E9012115F8010B9047761EF8D22046F0
:100D7000FFF772FABDE8F0814E414E006E616E00E1
:100D8000494E4600696E66002DE9F05F82461546C1
:100D90008B4600270AF10104B9460078302801D0BB
:100DA0009DB113E014F8010B0127782803D05828CF
:100DB00001D045B10AE00DB1102D07D1002714F87C
:100DC000010B102502E0082500E00A250026B046A8
:100DD0000EE005FB080005FB06F101271FFA80F86D
:100DE00001EB1046B6F5803F00D3B94614F8010B6D
:100DF000294600F0B0F80028EBDABBF1000F05D06F
:100E00000FB1641E00E05446CBF80040B9F1000F6A
:100E100006D0FFF74BFC02210160C81EBDE8F09F21
:100E200048EA0640FAE700002DE9F04781461646F9
:100E30008AB0354878440DC88DE80D0032487844B2
:100E4000801C03AC0DC884E80D0041F69B300844BB
:100E5000372190FBF1F290FBF1F5A5F1800501FB44
:100E600012041B3C02D56442012000E00020DFF8A0
:100E700098A080460027FA44AAF1BE0A0EE0E007D7
:100E80000AD03246684607EB470101230AEB81018D
:100E900000F010FB8DE8070064107F1C002CEED1E1
:100EA000194F7F44AE3F19E0E80715D007EB041057
:100EB0000DF1180A90E80E008AE80E00C068F042B2
:100EC00001D1981908903246012306A903A800F021
:100ED000F1FA03AB83E807006D10641C002DE3D129
:100EE0004FF0010332466946B8F1000F03A802D063
:100EF00000F0CBFA01E000F0DDFAC9E90001C9F821
:100F000008200AB0BDE8F087247500007546FFF799
:100F1000A5FEAE4605006946534620F0070085460B
:100F200018B020B5FFF75AF9BDE820404FF0000691
:100F30004FF000074FF000084FF0000B21F00701C1
:100F4000AC46ACE8C009ACE8C009ACE8C009ACE804
:100F5000C0098D4670473A2800D2303820F0200270
:100F6000412A01D3A2F13700884201D34FF0FF306C
:100F7000704710B50446AFF300802046BDE810402E
:100F8000FFF717B901491820ABBEFEE726000200A3
:100F900070475FEA400C08BF91F0000F4FEA8C23C6
:100FA0004FEAC12243EA51514FEA1C5018BF00F5E5
:100FB000F0404FEA300018BF41F000415FEA6C5C3E
:100FC00000F02980BCF1FF3F08BF40F0804070472F
:100FD000130C06BF12044FF0100C4FF0000C130E50
:100FE00004BF12020CF1080C130F04BF12010CF124
:100FF000040C930F04BF92000CF1020CD30F04BF3A
:1010000052000CF1010C11464FF00002A0F11F003C
:10101000A0EB0C00704711F0004F08BF704731F093
:1010200000413FF4D5AF0B0C06BF09044FF0100C84
:101030004FF0000C0B0E04BF09020CF1080C0B0F53
:1010400004BF09010CF1040C8B0F04BF89000CF1E3
:10105000020CCB0F04BF49000CF1010CCCF12003B2
:10106000A0EB0C0022FA03F302FA0CF241EA0301AE
:1010700000F10100704720F07F4C80EA030023F06C
:101080007F47ACEB070303F57C5300F0004003F10E
:10109000FF032DE980494FEA154B09B44FEA144389
:1010A00025EA0B4E24EA03480FF2042606EB132729
:1010B00049083E785FEA320203FB0667C7F500077E
:1010C00007FB06F64FEA54374FEAD64606F102060A
:1010D00007FB066CCCF1005C4FEA1C472CEA074C7E
:1010E00007FB06F40CFB06F504EB15464FEA9616D3
:1010F00034BF00204FF000404FEAD13706FB07FC19
:101100004FEA1C4C0CFB0BF7D21B03FB0CF761EBFB
:1011100007010CFB0EF7B0EB074072EB17420CFB1C
:1011200008F734BFA2EB0742B2EB074261EB17416D
:101130004FEA0C444FEA910706FB07FC4FEA1C4CB0
:101140000CFB0BF7B0EBC74072EB573203FB0CF70D
:1011500034BFA2EBC742B2EBC74261EB57310CFB85
:101160000EF7B0EBC70072EB57720CFB08F734BFF9
:10117000A2EBC702B2EBC70261EB5771039F4FEAC4
:10118000816141EA921104EBCC044FEAD1374FEA76
:10119000826206FB07FC42EA90124FEA80604FEA47
:1011A0001C4C0CFB0BF7D21B03FB0CF761EB07018C
:1011B0000CFB0EF7B0EB074072EB17420CFB08F785
:1011C00034BFA2EB0742B2EB074261EB17414FEA93
:1011D0008C554FEA910704EB9C2406FB07FC4FEA71
:1011E0001C4C0CFB0BF7B0EBC74072EB573203FB08
:1011F0000CF734BFA2EBC742B2EBC74261EB5731E9
:101200000CFB0EF7B0EBC70072EB57720CFB08F744
:1012100034BFA2EBC702B2EBC70261EB577115EB0B
:101220004C254FEA816141EA92114FEA82624FEA0E
:10123000D13742EA901206FB07FC44F100044FEA62
:1012400080604FEA1C4C0CFB0BF7D21B03FB0CF726
:1012500061EB07010CFB0EF7B0EB074072EB174296
:101260000CFB08F734BFA2EB0742B2EB074261EB7D
:10127000174115EB1C154FEA813141EA92414FEAC3
:10128000823242EA90424FEA80304FEA0C7644F1D3
:10129000000448EA03434EEA0B484FF0000EB2EB5D
:1012A000080C71EB030724BF624639464EEB0E0E65
:1012B0004FF0000B0018524149414BEB0B0BB2EBC6
:1012C000080C71EB03077BF1000B24BF6246394623
:1012D0004EEB0E0E4FF0000B0018524149414BEB04
:1012E0000B0BB2EB080C71EB03077BF1000B24BF77
:1012F000624639464EEB0E0E51EA020718BF46F021
:10130000010616EB0E7655F1000254F1000103D5EB
:10131000BDE88901BDE80088BDE88901BDE8004855
:10132000B619524141EB0101A3F1010370478080DE
:101330007F7E7D7C7B7A797877767675747372712F
:1013400071706F6E6E6D6C6C6B6A6A6968686766E7
:1013500066656464636362616160605F5F5E5E5D79
:101360005D5C5C5B5B5A5A595958585757565655ED
:1013700055555454535352525251515050504F4F4F
:101380004F4E4E4D4D4D4C4C4C4B4B4B4A4A4A499F
:1013900049494848484747474746464645454544E2
:1013A0004444444343434342424242414141002B6F
:1013B0009C4630D477002BD01CB54FEA370703B4D6
:1013C0004FF010004FF01001BAF1000F06D0BCF141
:1013D000000FDCBF40F0080040F008014FF00000B3
:1013E0000FBCBDE810400BF1010BBBF1010F08BFB2
:1013F0005FEA170722BF12F1010211F101014FF05C
:10140000004143F1000300F0004043EA0000704750
:10141000F9D35708D0E746EA064613F1400F4FEAE2
:1014200016461FDD13F1200FDFBF16430A460021C9
:1014300020335B42BED0C3F1200746EA064602FADB
:1014400007F74FEA164646EA0706C3F1200722FAD5
:1014500003F201FA07F721FA03F14FF0000342EA21
:101460000702A7E746EA020646EA06464FEA16469C
:1014700046EA0106BCBF46EA0646360C4FF00003BA
:101480004FF000024FF0000194E72DE9804C9A469E
:10149000934670B491E8380007C831EA400C48BF61
:1014A00034EA430C03D5FFF7E6FDFFF780FFF0BCFD
:1014B000BDE8008C2DE9804C9A46934670B491E8C3
:1014C000380007C810F0804F08BF13F0804F03D1D9
:1014D00000F005F8FFF76BFFF0BCBDE8008C20F0D2
:1014E0007F4780EA030023F07F4C07EB0C03A3F552
:1014F0007C5300F00040A3F1FE0392F0000F00F0D7
:10150000B38095F0000F00F077802DE901494FEA94
:1015100011404FEA144621EA004800FB06FC24EA89
:10152000064708FB06F607FB08F800FB07F718EB71
:1015300006484CEB164C4FEA124B18EB07484FEAA3
:1015400015464CEB174022EA0B4E0BFB06FC25EA36
:1015500006470EFB06F607FB0EFE0BFB07F71EEB1E
:10156000064E4CEB164C4FF000061EEB074E4CEBB4
:10157000174B18EB0B0840F1000018EB0E0B58EB63
:10158000000840F100008F1A4FF000013CBFC94332
:10159000661B14BFB5EB040C00213CBFC943F61B0E
:1015A0004FEA17444EEA8E0E27EA04454FEA1C47DD
:1015B00004FB07622CEA074C05FB07F70CFB05F65A
:1015C00004FB0CFC16EB074642EB174216EB0C46ED
:1015D00042EB1C421BEB060658EB0202414146EA75
:1015E0009E0601D5BDE80189B619524141EB0101C2
:1015F000A3F10103BDE801894FEA14454FEA114701
:1016000024EA054621EA074C05FB07F406FB07F729
:101610000CFB06F105FB0CFC11EB074144EB1744F6
:101620004FEA124711EB0C4144EB1C4422EA074CF1
:1016300005FB07F206FB07F70CFB06F605FB0CFCA7
:1016400016EB074642EB174216EB0C4642EB1C45E5
:101650006A1854F1000148BF7047B619524141EB76
:101660000101A3F10103704795F0000F37D04FEA55
:1016700011424FEA144721EA024624EA074C02FBD2
:1016800007F106FB07F70CFB06F402FB0CFC14EB5E
:10169000074441EB17414FEA154714EB0C4441EB6B
:1016A0001C4125EA074C02FB07F506FB07F70CFB7C
:1016B00006F602FB0CFC16EB074645EB174516EB4E
:1016C0000C4645EB1C42121951F1000148BF70470E
:1016D000B619524141EB0101A3F1010370474FEAF2
:1016E00014454FEA114724EA054621EA074C05FB59
:1016F00007F106FB07F70CFB06F24FF0000605FBAF
:101700000CFC12EB074241EB174112EB0C4251EB80
:101710001C4148BF7047921841EB0101A3F101033E
:101720007047000070B5044600688168C943C90766
:1017300017D1816821F00101816001F0F9F90546B6
:101740000AE000BF01F0F4F9401B022804D9206828
:101750008068C043C00706D020688068C043C007C7
:10176000F0D0002070BDA06A40F01000A062E06AD6
:1017700040F00100E062012070BDFEE702464FF438
:101780000061014801F0CFB90008014010B51A4CC2
:10179000E07902282FD0608905F04CF9216A05F024
:1017A0005DF90AD3A078012807D02078A189884262
:1017B00003D86078E18988421AD9608905F03AF93E
:1017C000216A05F04BF901D202200BE0A078012834
:1017D00005D02078A189884203D9042002E00320A3
:1017E00000E00520A0710120BDE81040FFF7C6BF52
:1017F0000020A071F8E710BD000000201FB5E02018
:1018000000900120019003200B4C03906946204674
:1018100001F094F80021902000F0C0F8002280210F
:10182000204601F080F900222021204601F07BF9BA
:101830000A2000F06BFA1FBD0008014070B51C4E75
:101840000546002401228021304601F06CF945F064
:10185000010000F081F804F0C7F900256408402178
:10186000304601F05BF908B144F0800401222021E8
:10187000304601F058F9012000F048FA00222021FA
:10188000304601F050F9012000F040FA6D1CEDB235
:10189000082DE3D304F002FA00228021304601F043
:1018A00042F900224021304601F03DF9204670BD4A
:1018B0000008014010B504468C20FFF7BFFF00F080
:1018C0000F01000900EB800001EB4000A0718820AF
:1018D000FFF7B4FF00F00F01000900EB800001EBFF
:1018E000400020718620FFF7A9FF00F00F010009DA
:1018F00000EB800001EB4000E0708420FFF79EFFCA
:1019000000F00F01000900EB800001EB4000A07027
:101910008220FFF793FF00F00F01000900EB800029
:1019200001EB400060708020FFF788FF00F07F002F
:1019300000F00F01000900EB800001EB4000207077
:101940008A20FFF77BFF00F00F01000900EB800009
:1019500001EB4000607110BD70B50F4E05460024CC
:1019600005F001024021304601F0DDF8012220217E
:10197000304601F0D8F8012000F0C8F900222021FB
:10198000304601F0D0F8012000F0C0F9641C6D0869
:10199000E4B2082CE4D370BD0008014070B51A4EC3
:1019A0000D46044601228021304601F0BCF8204655
:1019B000FFF7D2FF5FF0000405F00102402130463E
:1019C00001F0B1F801222021304601F0ACF80120ED
:1019D00000F09CF900222021304601F0A4F80120FB
:1019E00000F094F9641C6D08E4B2082CE4D30022E2
:1019F0008021304601F097F83046BDE87040002263
:101A0000402101F090B800000008014070B5054683
:101A100000218E20FFF7C2FF012000F077F980211E
:101A20000846FFF7BBFF68780A24B0FBF4F104FB1B
:101A30001101B0FBF4F001EB0010C1B28C20FFF7F4
:101A4000ADFFA878B0FBF4F104FB1101B0FBF4F09A
:101A500001EB0010C1B28820FFF7A0FFE878B0FBCF
:101A6000F4F104FB1101B0FBF4F001EB0010C1B282
:101A70008620FFF793FF2879B0FBF4F104FB1101F6
:101A8000B0FBF4F001EB0010C1B28420FFF786FF39
:101A90006879B0FBF4F104FB1101B0FBF4F001EB49
:101AA0000010C1B28220FFF779FFA879B0FBF4F1F2
:101AB00004FB1101B0FBF4F001EB0010C1B2802077
:101AC000FFF76CFFE879B0FBF4F104FB1101B0FB08
:101AD000F4F001EB0010C1B28A20FFF75FFF802114
:101AE0008E20FFF75BFFBDE87040012000F00EB9CB
:101AF0002DE9FC4108AF97E8700000278DF80070D1
:101B00008DF801008DF804308DF805408DF8021035
:101B10008DF806508DF803208DF807606846FFF7B2
:101B200075FFBDE8FC81000070B5164D0024012250
:101B30008021284600F0F7FF04E0641CA4B20120D5
:101B400000F0E4F88021284600F0E8FF10B1C82C2E
:101B5000F3D30FE0C82C0DD2002404E0641CA4B21F
:101B6000012000F0D3F88021284600F0D7FF18B1FB
:101B7000F02C04D3012070BDF02CEFD3FAE7002045
:101B800070BD0000000C014010B500F079F800F0C5
:101B90005FF8FFF7C9FFCC2000F080F8BE2000F00E
:101BA0007DF800F045F8044600F042F804EB002010
:101BB00080B21F21B1EBD02F09D1C043401C80B2AD
:101BC00004F030FB0022074B04F07CFB05E004F03E
:101BD00029FB6FF0030205F075F8BDE8104004F032
:101BE00097B800000000B0BF10B5104C0022802153
:101BF000204600F098FF012000F088F801228021A3
:101C0000204600F090FF0F2000F080F88021204651
:101C100000F084FF00284FF02D0003D000F076F88C
:101C2000012010BD00F072F8002010BD000C014032
:101C300070B500254FEA0504FFF7D6FFC001641C0C
:101C400040EA5500E4B2C5B2082CF5D3284670BD71
:101C500010B50A4C00228021204600F064FF40F2BB
:101C6000EE2000F053F801228021204600F05BFFB7
:101C7000BDE810400F2000F049B80000000C014002
:101C800010B5FFF7E5FFFFF74FFFCC2000F006F897
:101C9000BDE81040442000F001B8000070B5144EBB
:101CA00005460024E8074FF000024FF0800130465F
:101CB0000BD000F038FF022000F028F8012280212C
:101CC000304600F030FF3C200AE000F02CFF3C20C2
:101CD00000F01CF801228021304600F024FF022091
:101CE00000F014F8641C6D08E4B2082CDAD370BD5F
:101CF000000C0140704700B502464FF47A7302E0D1
:101D0000184600F003F8521EFAD200BD00EBC000E6
:101D1000C1004FF0E0204161002181610521016196
:101D20000169C903FCD504210161704710B5C821C0
:101D30000348FEF72DFC03490020088010BD000079
:101D4000C80600204000002000B5B3B0C82101A89B
:101D5000FEF740FC2948009029A32CA22EA101A83F
:101D6000FEF74EFA642238A101A800F087FA002895
:101D7000F8D1C82101A8FEF72DFC344A34A101A8EE
:101D8000FEF73EFA642230A101A800F077FA00289D
:101D9000F8D1C820FFF7AFFFC82101A8FEF71AFC51
:101DA00032A23EA101A8FEF72BFA642226A101A8C7
:101DB00000F064FA0028F8D1C82101A8FEF70AFC57
:101DC00012A30FA23CA101A8FEF71AFA64221EA1D9
:101DD00001A800F053FAC82101A8FEF7FBFB0BA3F2
:101DE00007A23EA101A8FEF70BFA642216A101A8E2
:101DF00000F044FA0028F8D133B000BDD0830008C9
:101E00006B3238303632724E613163004553503890
:101E10003236364455414E0041542B4D51545455A1
:101E20005345524346473D302C312C224E554C4CA5
:101E3000222C222573262573222C222573222C3056
:101E40002C302C22220D0A004F4B00001484000875
:101E500041542B4D515454434C49454E5449443DF3
:101E6000302C222573220D0A00000000696F742DAA
:101E700030367A30306472393332726A6D69332E9B
:101E80006D7174742E696F746875622E616C6979F6
:101E9000756E63732E636F6D0000000041542B4D0F
:101EA000515454434F4E4E3D302C222573222C3139
:101EB0003838332C310D0A0041542B4D51545453B2
:101EC00055423D302C222F25732F25732F757365B6
:101ED000722F676574222C310D0A000041542B4D7E
:101EE0005154545355423D302C222F7379732F2572
:101EF000732F25732F7468696E672F736572766907
:101F000063652F70726F70657274792F73657422B8
:101F10002C310D0A000000002DE9FE4F5F4D0446F4
:101F20005D4F4FF00109A5F10806AEE000F012FA8E
:101F3000002877D15AA15D48FEF7D5FA002871D064
:101F400002F01EFC04215AA002F094FF411C00D0B4
:101F500038703878022802D0032819D033E00821DD
:101F600055A002F087FF411C01D056490880092185
:101F700055A002F07FFF411C01D05649088008217E
:101F800055A002F077FF411C1DD0564908801AE089
:101F9000032155A002F06EFF411C02D086F8049088
:101FA0003070062151A002F065FF411C02D086F876
:101FB0000490707004214FA002F05CFF411C02D01D
:101FC00086F80490B07015214CA002F053FF411C1C
:101FD00000D070717079012852D110214DA002F00B
:101FE00049FF411C00D0A87111214FA002F042FF0F
:101FF000411C00D02871102150A002F03BFF411C71
:1020000000D0E8700F2152A002F034FF411C00D034
:102010002870122152A002F02DFF411C00D06870E0
:10202000102100E02EE053A002F024FF411C00D05C
:10203000A870102154A002F01DFF411C00D068714F
:1020400095F806C0BCF1000F18D02879B0F1000A4D
:1020500014D0EA7892B1AB7883B195F80180B8F1E9
:10206000000F0BD0297849B1687938B1CDF80080DC
:10207000CDE9011051466046FFF73AFD002070712E
:10208000FFF754FE0120FFF736FE2046641EA4B27F
:10209000BFF44CAFBDE8FE8F0700002034000020E5
:1020A0004D5154545355425245435600C8060020E2
:1020B0006D6F64650000000074656D705F6D617820
:1020C000000000000A00002068656172745F6D61A5
:1020D000780000000C00002073706F325F6D617833
:1020E000000000000E000020736563006D696E75CE
:1020F00074650000686F75720000000043616C69D0
:1021000062726174696F6E5F74696D655F66616C40
:102110006700000043616C6962726174696F6E5F91
:10212000796561720000000043616C6962726174DC
:10213000696F6E5F6D6F6E746800000043616C695B
:1021400062726174696F6E5F6461746500000000A3
:1021500043616C6962726174696F6E5F736563007D
:1021600043616C6962726174696F6E5F6D696E75EF
:102170007465000043616C6962726174696F6E5FBF
:10218000686F75720000000043616C69627261746F
:10219000696F6E5F7765656B0000000010B5012206
:1021A00019491A4801F0FCFB642219A119A000F09A
:1021B00065F80028F8D1642215A118A000F05EF897
:1021C0004FF47A70FFF797FD642211A116A000F07A
:1021D00055F80028F8D164220DA115A000F04EF8A2
:1021E0000028F8D164220AA115A000F047F80028C1
:1021F000F8D1642216A119A000F040F80028F8D107
:10220000BDE81040FFF7A0BD3C00002038020020D0
:102210004F4B000041540D0A0000000041542B5266
:1022200053540D0A00000000415445300D0A0000CF
:1022300041542B43574D4F44453D310D0A0000009A
:1022400041542B4349504D55583D300D0A00000074
:102250005749464920474F542049500041542B4389
:10226000574A41503D2245535038323636222C22AF
:102270003132333435363738220D0A0070B5144602
:102280000D4603F07BF864200DE000BF00F062F81B
:1022900040B929460748FEF726F918B1FFF746FD71
:1022A000002070BD0120FFF726FD641EA4B2EDD210
:1022B000012070BDC806002010B5B2B00446FEF77C
:1022C00048F983B20CA217A16846FDF799FF642272
:1022D0001CA16846FFF7D2FF0028F8D16420FFF761
:1022E0000AFD012218A12046FFF7C8FF6420FFF76E
:1022F00002FD32B010BD00002F6B32383036327222
:102300004E6131632F455350383236364455414E75
:102310002F757365722F4553503832363644554108
:102320004E00000041542B4D5154545055425241DF
:10233000573D302C222573222C25752C302C300D46
:102340000A0000003E0000004D5154545055423ADE
:102350004F4B00000B4810B5C178022902D2491C2E
:10236000C1700AE0084A0023C370118829B1C488EB
:10237000A14204D11380002010BD012010BDC180F6
:10238000FBE700002C0000204000002072B6FEE7B2
:1023900001220249024801F003BB00003D00002079
:1023A000800200202DE9F34FE7B0642119A8FEF761
:1023B00011F964216846FEF70DF900256424DFF861
:1023C000F8B106E09BF80000012808D00120FFF7D3
:1023D00092FC641EE4B2F5D269B0BDE8F08F774894
:1023E0000024014680F8C74032A8FEF78EF88DF829
:1023F0008F4173A132A8FEF776F80028ECD019AA15
:10240000801C03E051556D1CEDB2401C01782C2955
:10241000F8D16CA132A8FEF766F80028DCD00021C4
:102420006B46801C05E00A2906D05A54491CC9B2E3
:10243000401C02782C2AF6D163A119A8FEF753F8A4
:1024400010F8011F8DF8901141788DF89111817865
:102450008DF89211C1788DF89311A2468DF89441B0
:1024600020B164A8FEF732F800F0FF08404603F000
:10247000D9FE0022554B03F039FD04469DF8660055
:102480000D4630389DF8671000EB80026FF02F0981
:1024900009EB4200084403F0AEFE00224C4B03F06F
:1024A00025FD06469DF864000F4630389DF86510FE
:1024B00000EB800209EB4200084403F09CFE3B461F
:1024C000324603F057FC22462B4603F053FC03F040
:1024D0001FFCDFF800914049404A0144C9F8080058
:1024E000914201D26899086037A16846FDF7FBFF69
:1024F000CDF890A1CDF894A110F8012F8DF890217E
:1025000042788DF8912182788DF89221C2788DF8E9
:1025100093218DF894A120B164A8FDF7D7FF00F0B6
:10252000FF08404603F07EFE0022284B03F0DEFC4D
:1025300006469DF803000C46303800EB80029DF8FB
:1025400004106FF02F0000EB4200084403F053FE2C
:1025500000221F4B03F0CAFC07469DF800000D4601
:1025600030389DF8021000EBC00202EB001001EBC6
:1025700080009DF801101A4A01EB810102EB410134
:10258000084403F038FE3A462B4603F0F3FB32468C
:10259000234603F0EFFB03F0BBFB1249124A014450
:1025A000C9F80400914201D26799086002F0F6FE72
:1025B0008BF800A010E700003F00002090070020EB
:1025C000410000004E0000002E000000804F22411C
:1025D00000004E406C000020FFFFBFBFFFFF130252
:1025E000F0FDFFFFFFFF6DBDFFFF7400F8B5002495
:1025F000009490F824202546012A12D0012280F868
:1026000024204A681F23072A0DD20668776B521EC2
:1026100002EB820293409F430B6893401F43776312
:1026200019E00220F8BD06680D2A0AD2376BD21FC6
:1026300002EB820293409F430B6893401F43376332
:1026400009E0F76A0D3A02EB820293409F430B6860
:1026500093401F43F7620A68072306680A2A0AD3D1
:10266000F7680A3A02EB420293409F438B6893401B
:102670001F43F76008E0376902EB420293409F4333
:102680008B6893401F4337610A68102A01D0112AD2
:1026900020D1124B02689A4217D193681B0219D4B9
:1026A000936843F4000393600968102912D10C4920
:1026B0000C4A0968B1FBF2F101EB8101490000E02D
:1026C000491E00910029FBD104E0816A41F02001FC
:1026D0008162012480F824502046F8BD0024014086
:1026E0009800002040420F002DE9F0414FF0000714
:1026F00004003D467ED0A06A002628B9E66284F830
:102700002460204600F07EF82046FFF70BF8A16A0F
:10271000C90600D420B1A06A40F01000A06269E0B0
:10272000A16A21F4885141F00201A1626268E16965
:10273000237B0A4347EA43010A43A1684FF48077A9
:10274000B94209D0012907D05FF0000194F814C004
:10275000BCF1010F02D00AE03946F7E7F3B1A36AF2
:1027600043F02003A362E36A43F00103E3622368BA
:10277000D3F804C02CF4694C4CEA010CC3F804C033
:1027800021688B68DFF870C003EA0C0313438B6089
:10279000A168B9420BD0012909D00CE0DFF85CC078
:1027A000A3690CEB43330B4343F40061DFE7218A59
:1027B0000D05A5F580152168CB6A23F470032B4322
:1027C000CB62216889680E4B1940914208D1E662BC
:1027D000A16A21F0020141F00101A162BDE8F0818E
:1027E000A06A20F0020040F01000A062E06A40F011
:1027F0000100E0620120F1E7FDF7E1FF00E0FFFFEB
:10280000FE0E1FFF00B585B00021009101910291DD
:10281000039100680E49884218D10E48816941F43D
:1028200000718161816901F400710491816941F055
:10283000040181618069694600F004000490012070
:10284000009003200190044800F078F805B000BD26
:1028500000240140001002400008014010B590F82B
:1028600021100022022905D00421816380F8202054
:10287000012010BD01680B6823F00E030B60016896
:102880000B6823F001030B6090F84030C46B01210A
:1028900001FA03F3636080F8211080F820201046CD
:1028A00010BD000010B590F821100024022903D0BB
:1028B0000421816301243DE001680A6822F00E02D0
:1028C0000A6001680A6822F001020A601A4A016877
:1028D000914201D1012121E0174A1432914201D1E4
:1028E00010211BE0144A2832914201D1891515E0CC
:1028F000114A3C32914201D189140FE00E4A503204
:10290000914202D14FF4803108E00B4A6432914287
:1029100002D14FF4801101E04FF08071064A083A6D
:102920005160012180F82110002180F82010416BB6
:1029300001B18847204610BD080002402DE9F84F3C
:10294000DFF8B8910024A9F1040B23460F2709F101
:10295000040AABF1040EC9E00125A5402A40AA42B1
:102960007DD1674ED1F804C0ACEB0608B44532D037
:1029700014DCBCF1030F3AD009DCBCF1000F2AD003
:10298000BCF1010F1CD0BCF1020F31D11DE0BCF134
:10299000110F17D0BCF1120F2AD119E0B8F5881F1A
:1029A00019D006DCB8F5803F15D0B8F5801F1FD1CF
:1029B00011E0B8F5001F0ED0B8F5041F18D10AE0D9
:1029C000CB6815E0CB681B1D12E0CB6808330FE025
:1029D000CB680C330CE08B682BB1012B4FF0080354
:1029E00003D0456104E0042302E0056100E0002318
:1029F000FF2A01D8064601E000F104064FEA8405EB
:102A000001D9A5F12005D6F8008007FA05FC28EACF
:102A10000C0803FA05F548EA0508C6F800804D6879
:102A2000ED0062D5374DAE6946F00106AE61AD6985
:102A300024F0030605F001050095334D06EB050C67
:102A4000DCF80850A607360F07FA06F825EA08054D
:102A5000DFF8B880404503D14FF0000817E044E0AC
:102A6000DFF8AC80404502D14FF001080FE0DFF8FD
:102A7000A480404502D14FF0020808E0DFF89880BA
:102A8000404502D14FF0030801E04FF0040808FA76
:102A900006F848EA0508CCF808804D68D9F80060C7
:102AA000ED024D4601D5164300E096432E604D6879
:102AB000DAF80060AD02554601D5164300E09643B2
:102AC0002E604D68DBF80060AD035D4601D516430E
:102AD00000E096432E604D68DEF80060ED03754619
:102AE00001D5164300E096432E60641C0D682A460B
:102AF000E5407FF431AFBDE8F88F000008040140E5
:102B000000001110001002400000014000080140C8
:102B1000000C014000100140001401408068084092
:102B200000D0012070470AB1016170470904FBE73A
:102B300001488068704700008C00002002488168CE
:102B400002781144816070478C000020074810B55E
:102B5000016841F010010160032000F075F80F20BA
:102B600000F006F800F024F8002010BD002002401C
:102B700070B50D4D04464FF47A712878B1FBF0F032
:102B80000A490968B1FBF0F000F052FB48B9102C7B
:102B900007D200222146501E00F036F800206C605B
:102BA00070BD012070BD00008C0000209800002046
:102BB0000C4808B5816941F001018161816901F02A
:102BC00001010091C16941F08051C161C06900F00B
:102BD000805000900448416821F0E06141F00071AC
:102BE000416008BD0010024000000140002809DBE0
:102BF00000F01F02012191404009800000F1E02017
:102C0000C0F8001170470000F0B40E4B1B680C4672
:102C1000C3F30223C3F10705042D00D90425191DB0
:102C2000072901D2002300E0DB1E012606FA05F188
:102C3000491E214099409E40761E16403143F0BC0B
:102C400002F0C7BB0CED00E0064900F0070208687F
:102C50004FF6FF03184040EA0220034A1043086081
:102C6000704700000CED00E00000FA052DE9F84384
:102C700005460078354CC00754D0E0690026C000F6
:102C800008D4E06940F08050E061E069012600F07E
:102C9000805000902E480168C90512D40168804612
:102CA00041F480710160FFF743FF074605E000BF74
:102CB000FFF73EFFC01B642823D8D8F80000C005EA
:102CC000F6D5206A10F4407021D0A98801F4407133
:102CD00081421CD0206A1F49012220F440700A6002
:102CE00000220A602062C00711D0FFF721FF0746CB
:102CF00041F2883808E000BFFFF71AFFC11B4145C9
:102D000002D90320BDE8F883206A8007F4D5206A41
:102D1000696820F44070084320621EB1E06920F029
:102D20008050E0612878800705D56068A96820F4A4
:102D30004040084360602878C00605D56068E968AF
:102D400020F48000084360600020DBE700100240B0
:102D500000700040400442422DE9F0470F46050054
:102D600061D0434E306800F00700B84209D23068A5
:102D700020F0070038433060306800F00700B842A8
:102D800051D128683B4C810712D5400703D56068B4
:102D900040F4E06060602878000703D5606840F484
:102DA000605060606068A96820F0F00008436060CF
:102DB0002878C00728D06868012810D02168022828
:102DC00010D0890700292EDA616821F00301014340
:102DD0006160FFF7ADFE804641F288390DE0216861
:102DE0008903EFE78901EDE7FFF7A2FEA0EB0801F9
:102DF000494502D90320BDE8F0876068696800F0A2
:102E00000C00B0EB810FEFD1306800F00700B84242
:102E10000BD9306820F0070038433060306800F08C
:102E20000700B84201D00120E5E72878400705D522
:102E30006068E96820F4E060084360602878000773
:102E400006D56068296920F4605040EAC1006060DE
:102E500000F038F86168084AC1F30311515CC840BA
:102E60000649086006480068FFF782FE0020C2E7B6
:102E70000020024000100240B482000898000020A8
:102E8000900000200448054900684968044AC1F3DD
:102E90000221515CC8407047980000200010024099
:102EA000C48200080448054900684968044AC1F31F
:102EB000C221515CC84070479800002000100240B9
:102EC000C48200080E4A51680E4801F00C03042B1E
:102ED00011D0082B0FD10C48C1F38343C903C05C48
:102EE0000AD55168084AC1F34041921E515C054A17
:102EF0005043B0FBF1F0704704494843704700006D
:102F00000010024000127A00A482000800093D006F
:102F10002DE9F84F040070D02078C04DC00749D08B
:102F20006868C0F38100012807D06868C0F3810099
:102F3000022809D16868C00306D52868800339D5FE
:102F400060680028E7D035E06068B0F5803F0BD0BE
:102F500010B1B0F5A02F11D0286820F4803028607F
:102F6000286820F4802002E0286840F4803028603F
:102F7000606890B1FFF7DCFD06460AE0286840F47F
:102F800080202860F0E700BFFFF7D2FD801B642897
:102F900073D828688003F7D50CE0FFF7C9FD064613
:102FA00005E000BFFFF7C4FD801B6428F0D8286847
:102FB0008003F7D420789A4E80074FF001094FF034
:102FC000000839D5686810F00C0F07D06868C0F3A6
:102FD0008100022809D16868C00306D428688007E8
:102FE00014D52069012808D110E02069B0B1C6F8D5
:102FF0000090FFF79DFD074605E00AE1FFF798FD09
:10300000C01B0228C4D828688007F7D528686169E2
:1030100020F0F80040EAC10028600DE0C6F800800A
:10302000FFF786FD074604E0FFF782FDC01B02287C
:1030300023D828688007F7D4207800072CD5794852
:10304000A169D9B1C0F80090FFF772FD074604E00E
:10305000FFF76EFDC01B02280FD8686A8007F7D5FE
:1030600071484FF4FA510068B0FBF1F0009000BFD6
:103070000098411E0091FAD20EE080E0C0F8008076
:10308000FFF756FD074604E0FFF752FDC01B02287C
:1030900075D8686A8007F7D42078400760D5E8695A
:1030A0000027C00008D4E86940F08050E861E86972
:1030B000012700F0805000905C480168C90513D4D6
:1030C0000168834641F480710160FFF731FD82465B
:1030D00006E000BFFFF72CFDA0EB0A0064284ED8E5
:1030E000DBF80000C005F5D5E06801280AD008B17A
:1030F000052813D0286A20F001002862286A20F0F1
:10310000040002E0286A40F001002862E06841F211
:10311000883B98B1FFF70CFD82460BE0286A40F02F
:1031200004002862EEE700BFFFF702FDA0EB0A01F2
:1031300059455AD8286A8007F6D50CE0FFF7F8FC05
:10314000824605E0FFF7F4FCA0EB0A0159454CD894
:10315000286A8007F6D41FB1E86920F08050E86142
:10316000E06988B36968C1F38101022944D002286B
:10317000C6F8608004D0FFF7DBFC044638E034E09A
:10318000FFF7D6FC074604E0FFF7D2FCC01B02287D
:103190002BD828688001F7D4206AB0F5803F05D18C
:1031A0006868A16820F4003008436860D4E9080129
:1031B0000843696821F4741108436860C6F8609098
:1031C000FFF7B6FC044606E025E000BFFFF7B0FCC1
:1031D000001B022809D828688001F7D51BE000BF32
:1031E000FFF7A6FC001B022802D90320BDE8F88FD8
:1031F00028688001F4D40EE00128F7D06868226ABC
:1032000000F48031914204D1616A00F47010884268
:1032100001D00120EAE70020E8E7000000100240AA
:1032200000004242800442429800002000700040AA
:1032300010B5401EB0F1807F01D3012010BD4FF0CA
:10324000E02460610F21601702F0C3F80020A06144
:1032500007202061002010BD7047704770B590F8BE
:103260003C20012A26D0012480F83C40022280F82C
:103270003D2003685A689D6822F070060A68324350
:103280005A600D4B02689A4208D0B2F1804F05D0C7
:103290000A4B9A4202D00A4B9A4204D1496825F05F
:1032A00080031943916080F83D40002180F83C1074
:1032B000084670BD022070BD002C01400004004093
:1032C0000008004010B5040003D094F83D0010B190
:1032D00007E0012010BD002084F83C00204600F0EB
:1032E0001FF8022084F83D00211D206801F088FEAF
:1032F000012084F8460084F83E0084F83F0084F8FA
:10330000400084F8410084F8420084F8430084F8C7
:10331000440084F8450084F83D00002010BD000002
:1033200008B5154A0168154891420ED1816941F4EA
:10333000006181618069002200F400600090114604
:103340001920FFF761FC192010E0B1F1804F11D175
:10335000C16941F00101C161C069002200F00100B2
:10336000009011461C20FFF74FFC1C20BDE80840D0
:10337000FFF73CBC08BD0000002C014000100240DB
:1033800090F83D10012901D001207047022180F8FA
:103390003D100168CA6842F00102CA6000680B492A
:1033A000884208D0B0F1804F05D00949884202D048
:1033B0000849884204D1816801F00701062903D039
:1033C000016841F00101016000207047002C0140BC
:1033D000000400400008004070B5044690F83C002E
:1033E0000025012817D0012684F83C60022084F8CB
:1033F0003D002068826822F0770222F47F428260DA
:103400000868502838D00DDC20284FD005DC90B358
:10341000102811D14AE0022070BD302846D0402843
:103420000AD13BE060282FD070280DD0B0F5805F26
:1034300003D0B0F5005F12D0012584F83D60002074
:1034400084F83C00284670BDCB68D1E90121206892
:1034500001F012FE2068816841F0770109E0CB6835
:10346000D1E90121206801F007FE2068816841F45C
:1034700080418160E1E719E0CA684968206801F08D
:103480000DFE5021206806E0CA684968206801F0F6
:1034900016FE6021206801F0F9FDCEE7CA68496890
:1034A000206801F0FBFD40212068F4E72268014616
:1034B0001046F0E770472DE9F04104460068C66801
:1034C00005694FF00007A90713D5B10711D5F91EFB
:1034D000016101202077206880698007204602D0A2
:1034E000FFF7E8FF04E000F07EF8204600F07CF8EB
:1034F0002777680716D5700714D521686FF0040088
:103500000861022020772068806910F4407F2046FF
:1035100002D0FFF7CFFF04E000F065F8204600F08E
:1035200063F82777280715D5300713D521686FF082
:1035300008000861042020772068C06980072046C1
:1035400002D0FFF7B7FF04E000F04DF8204600F08E
:103550004BF82777E80616D5F00614D521686FF0EA
:1035600010000861082020772068C06910F4407FAF
:10357000204602D0FFF79EFF04E000F034F820461A
:1035800000F032F82777E80708D0F00706D0216866
:103590006FF001000861204600F027F8280608D5E2
:1035A000300606D521686FF0800008612046FFF7DD
:1035B00053FE680608D5700606D521686FF04000F6
:1035C0000861204600F012F8A8060AD5B00608D512
:1035D00021686FF0200008612046BDE8F041FFF748
:1035E0003CBEBDE8F0817047704770477047704738
:1035F00070470000F8B5016804460868CA684B695E
:1036000010F00F0F4FF0000559D003F0010602F43F
:103610009077374365D0C10705D0D10503D5616CDC
:1036200041F001016164410705D5D90703D0616C00
:1036300041F002016164810705D5D90703D0616CAF
:1036400041F004016164010707D502F02001314314
:1036500003D0616C41F008016164616C00293AD0CB
:10366000800604D5900602D5204601F069FD206849
:103670004069616CC0F38010090700D460B3204634
:1036800001F037FD20684069400621D520681430DC
:1036900050E8001F21F0400140E80012002AF5D157
:1036A000E06BA8B16D494163E06BFFF7FBF80028C0
:1036B00011D0E06B416B01B0BDE8F04008478306D4
:1036C0000FD593060DD52046BDE8F84001F038BD72
:1036D0002046FFF78DFFF8BD2046FFF789FF6564A0
:1036E000F8BD266B2023012E7CD1C6067AD5D606DE
:1036F00078D508684868009048694FF0020640068F
:1037000040D5E16B086840680004000CE8D0A28D49
:103710008242E5D9E085886920282DD020680C30C8
:1037200050E8001F21F4807140E80012002AF5D112
:103730002068143050E8001F21F0010140E8001219
:10374000002AF5D12068143050E8001F21F0400114
:1037500040E80012002AF5D184F842302563206841
:103760000C3050E8001F21F0100140E80012002A40
:10377000F5D1E06BFFF772F86663A08DE18D401A1A
:1037800081B22AE0A08DE18D401A81B2E08D00283F
:10379000A6D00029A4D022680C3252E8000F20F4F1
:1037A000907042E80007002FF5D12068143050E8EF
:1037B000002F22F0010240E80027002FF5D184F805
:1037C0004230256320680C3050E8002F22F01002B0
:1037D00040E80023002BF5D166632046FFF707FF82
:1037E000F8BDFFE705062BD5150629D594F841004D
:1037F0002128F5D1A068B0F5805F01D12069B0B172
:10380000206A411C2162216800784860E08C401EDB
:103810000004000CE084E3D12068C16821F080013D
:10382000C1602068C16841F04001C160D8E7206AEA
:103830000088C0F308004860206A801C2062E5E729
:103840004006CDD55006CBD5CA68204622F04002AE
:10385000CA6084F8413000F05FF9C1E7E350000826
:1038600070B5040004D094F84100002510B106E0C2
:10387000012070BD84F84050204600F023F8242039
:1038800084F841002068C16821F40051C1602046DD
:1038900001F0B8FC2068016921F4904101612068C1
:1038A000416921F02A0141612068C16841F4005159
:1038B000C1606564202084F8410084F8420065639B
:1038C000002070BD70B586B000240094019402946D
:1038D000039403682E482D4E022103220515B3429E
:1038E00026D1836943F480438361836903F4804371
:1038F0000493836943F0040383618069254E00F0DB
:10390000040004900802CDE90001039269463046A4
:10391000FFF714F8CDE90054694630460294FFF7EA
:103920000DF8002211462520FFF76EF9252028E02A
:10393000194EB34227D1C36943F48023C361C369DD
:1039400003F480230493836943F00803836180694F
:10395000CDE9005100F00800CDE903200F4D694684
:103960002846FEF7EBFFE814CDE900046946284637
:103970000294FEF7E3FF002211462720FFF744F9E7
:103980002720FFF733F906B070BD00000038014072
:10399000001002400008014000480040000C0140B7
:1039A00090F84230202B01D00220704721B11AB18B
:1039B0000023036301F082BC0120704770B50068EA
:1039C00027490025274C88420FD1274AA088217813
:1039D0001154401CA080012221462448FFF7E0FF3B
:1039E000A088C82800D3A58070BD21498842FBD19A
:1039F0001C490122491C1F48FFF7D2FFA178012072
:103A00000629F1D2DFE801F003070C11161E6178D8
:103A1000242915D070BD607847280ED102200FE010
:103A20006078502809D103200AE06078522804D138
:103A3000042005E060784D2801D0A57070BD0520F8
:103A4000A07070BD61780A2902D1A570E070E58090
:103A5000054AE088C8321154401CE08070BD000067
:103A6000003801403C000020C80600203802002039
:103A700000480040800200202DE9F843044690F8F9
:103A80004100984616460D46202802D00220BDE887
:103A9000F88385B17EB100206064212084F8410064
:103AA000FFF746F8A6848146E684A0682027B0F593
:103AB000805F02D003E00120E9E7206910B12E46C3
:103AC00000250EE000260CE08021204601F011FCCC
:103AD000A8B9C6B116F8010B21684860E08C401EF9
:103AE000E084E08C4B464FF00002CDF800800028C7
:103AF000EAD14FF04001204601F0FBFB40B184F8D1
:103B000041700320C3E735F8020BC0F30800E3E778
:103B100084F841700020BAE77047FEE72DE9F041D4
:103B200015460E460746002400F05DF8D02000F050
:103B300047F800F073F8384600F042F800F06EF8ED
:103B400000F051F8D12000F03BF800F067F86F1E4C
:103B50000CE000BF00F010F83055BC4201D101204C
:103B600000E0002000F021F8641CE4B2AC42F1D384
:103B7000BDE8F04100F046B870B50025012000F026
:103B8000D3FB00248026012000F0C0FB00F090FB56
:103B9000012802D126FA04F00543002000F0B6FB0C
:103BA000641C082CEFDB284670BD10B500F0BCFB90
:103BB000012000F0ABFBBDE81040002000F0A6BBE8
:103BC00070B500240546802626FA04F0284000F04F
:103BD000ABFB012000F09AFB002000F097FB641C77
:103BE000082CF1DB70BD10B5012000F09DFB012019
:103BF00000F08CFB002000F097FBBDE81040002097
:103C000000F084BB10B5002000F08EFB012000F016
:103C10007DFBBDE81040012000F086BB10B50120FF
:103C200000F082FB012000F071FB00F041FB044634
:103C3000002000F06BFB204610BD70B50D46044619
:103C4000FFF7D1FFD020FFF7BBFFFFF7E7FF2046CC
:103C5000FFF7B6FFFFF7E2FF2846FFF7B1FFFFF7D8
:103C6000DDFFBDE87040FFF7CDBF000070B5094C27
:103C70000025C4F8945104F5CA7401F067F9656031
:103C80000220FEF743F8012020600220FEF73EF8F4
:103C9000256070BD00802142012260210148FEF7AD
:103CA00042BF0000000C014070B5094C0025C4F86B
:103CB000945104F5CA7401F049F9012666600220A6
:103CC000FEF724F826600220FEF720F8256070BD7C
:103CD000008021422DE9F0478146002401F028F9B7
:103CE0000025124E2F464FF0010800BFC6F8947110
:103CF0000220FEF70BF8C6F894816006040ED6F891
:103D0000180108B1641CE4B20120FDF7FFFF6D1C2F
:103D1000EDB2082DEAD3B9F1000F04D0FFF7A6FFEA
:103D20002046BDE8F087FFF7BFFFF9E7008021429A
:103D30002DE9F041064601F009F90F4C0027C4F8BF
:103D400094713D464FF00108F009C4F898017006DF
:103D5000060E0220FDF7DAFFC4F894810220FDF779
:103D6000D5FFC4F894710220FDF7D0FF6D1CEDB2B1
:103D7000082DE9D3BDE8F0810080214270B501F043
:103D8000E5F8094C0120C4F89801C4F89401042016
:103D900004F5CA74FDF7BAFF002565600420FDF73D
:103DA000B5FF256070BD00000080214210B501F014
:103DB000CDF8094C0020C4F89401C4F898010420FF
:103DC00004F5CA74FDF7A2FF012020606060BDE821
:103DD00010400420FDF79ABF0080214270B50024F6
:103DE00001F0A6F80D4D0126C5F898613046FDF7A3
:103DF0008DFFC5F894610120FDF788FF07E0641C82
:103E0000E4B2FA2C03D9FFF7D1FF012070BDD5F839
:103E100018010028F3D1C5F8940170BD008021423B
:103E20002DE9F34F5C4C4FF0000B83B0594B5B4FC7
:103E3000C4E9013B81465846642107F5FA654FF411
:103E4000FA7800BF05EB810655F82120A6F58056CB
:103E500007EB810CC6F8702EACF5805C57F821603A
:103E6000CCF8706E9A4200D21346824200D91046B6
:103E7000491C4145E6DBC4E90130DFF824A14FF4D9
:103E8000C87600BF05EB860050F8040CA0615046D0
:103E9000D0F810110129FBD03F490720203101F053
:103EA00040FB3D49203108784A788007800B40EA82
:103EB00002208A78104345F82600CA780B799207C9
:103EC000920B497942EA03220A4347F82620A16966
:103ED000884219D9401A02F0ADFD0090D4E90110D2
:103EE000401A02F0A7FD0146009802F0ADFC2D49F2
:103EF00002F0E8FDE06102F069FDE168081AE060A7
:103F00001CD5C4F80CB019E0081A02F093FD00901B
:103F1000D4E90110401A02F08DFD0146009802F02C
:103F200093FC204902F0CEFDE06102F04FFDE16814
:103F30000844E060FF2801DDFF20E060761C464574
:103F4000A0DB154A521C02F11301501E8DE8070038
:103F50000B1F154A4146114801F0C2FB6078012849
:103F600014D12078012811D1606978280EDA2169EE
:103F700065290BDA3C2803DA3C2189F8001001E0BE
:103F800089F80000207C0499401E087005B0BDE847
:103F9000F08F0000FFFF030044000020B81F002046
:103FA0000080214200007F43882700202DE9F04156
:103FB000044600F0C7F93F480678002E2FD03E494E
:103FC00000230125A1F11402012E0FD0022E32D0C0
:103FD000032E24D1B1F90A60B1F91E10314401EB6E
:103FE000D171066941F34F01F6B354E0B1F90660AF
:103FF000B1F91A10314401EBD171866841F34F01D8
:104000007EB1012E0BD1B2F906208A4207DDB4F948
:1040100006208A4203DAE168491CE1608360BDE85A
:10402000F081B2F906208A42F9DAB4F906208A4210
:10403000F5DD8560F3E7B1F90860B1F91C10314492
:1040400001EBD171C66841F34F0186B1012EE6D173
:10405000B2F908208A42E2DDB4F908208A42DEDAA9
:10406000E168491CE16000E00BE0C360D7E7B2F90A
:1040700008208A42D3DAB4F908208A42CFDDC5602D
:10408000CDE7B2F90A708F4205DAB4F90A708F42AF
:1040900001DD0561C3E7B2F90A208A42BFDDB4F948
:1040A0000A208A42BBDA012EB9D1E168491CE160DD
:1040B0000361B4E778000020802F0020F0B589B0BC
:1040C0000446182102A8FCF785FA00F0FFF87028D2
:1040D0007ED15A4DE0880026E880208928816089B9
:1040E0006881062269464320FFF718FDBDF80000ED
:1040F000029940BA08440290BDF80200039940BA00
:1041000008440390BDF80400049940BA08440490A0
:10411000062269463B20FFF701FDBDF80000059926
:1041200040BA08440590BDF80200069940BA084418
:104130000690BDF80400079940BA761C0844F6B210
:1041400007900A2ECDD302990A2091FBF0F109B213
:10415000E180039A92FBF0F216B22681049A92FB58
:10416000F0F212B26281059B93FBF0F32380069B71
:1041700093FBF0F36380079B93FBF0F0A080B5F90D
:104180000630581A002800DCC81AB5F9087001B2C8
:10419000B81B002800DCF01BB5F90A7006B2B81A8B
:1041A000002800DCD01B41F29512A1F5FA7100B293
:1041B000914200D3E380A6F5FA76964201D329898D
:1041C0002181A0F5FA70904201D36889608100E0F6
:1041D00031E01A48B4F906101430B0F906208A42CA
:1041E00000DD1146C180B0F91A20B4F906108A42E8
:1041F00000DC11464183B0F90810B4F9082091425F
:1042000000DC11460181B0F91C20B4F908108A4283
:1042100000DC11468183B0F90A10B4F90A209142FA
:1042200000DC11464181B0F91E10B4F90A20914218
:1042300000DD1146C18309B0F0BD00006C2F0020E5
:1042400010B580216B20FFF7F8FC6420FDF753FDCB
:1042500000216B20FFF7F1FC032000F020F9002083
:1042600000F018F9C82000F035F900213820FFF7D8
:10427000E4FC00216A20FFF7E0FC00212320FFF787
:10428000DCFC80213720FFF7D8FC00F01FF87028F5
:104290000CD101216B20FFF7D0FC00216C20FFF72F
:1042A000CCFCBDE81040C82000F014B910BD0000DF
:1042B00010B50A20FDF72AFDBDE810404FF48051EB
:1042C0000148FEF72BBC0000000C014010B575241E
:1042D000FFF789FCD020FFF773FCFFF79FFC204617
:1042E000FFF76EFCFFF79AFCFFF77DFCD120FFF78C
:1042F00067FCFFF793FCFFF73FFC04460120FFF744
:1043000054FCFFF77FFC204610BD000010B50246AC
:104310004FF400510348FEF706FCBDE810400A20A8
:10432000FDF7F4BC000C014010B502464FF480517B
:104330000348FEF7F8FBBDE810400A20FDF7E6BC95
:10434000000C014070B50446FFF7B8FE2F4A304913
:104350005078401CC0B250701E2822D3B1F90650CC
:10436000B1F9083000209D4205DDB1F90A60B34281
:1043700001DD01230EE0AB4205DDB1F90A60B34275
:1043800001DD022306E0B1F90A60AE4204DD9E427F
:1043900002DD0323137000E010705070C8800881A4
:1043A00048811B4BB4F906201433B3F90650A81A00
:1043B000002800DC501BB3F90860B4F9085002B2C1
:1043C000701B002800DCA81BB3F90A50B4F90A409E
:1043D00000B22B1B002B00DC631B1BB2824205DDED
:1043E0009A4203DDC888401CC88070BD904205DD3C
:1043F000984203DD0889401C088170BD9342FCDDB2
:104400008342FADD4889401C488170BD7800002055
:10441000582F002070B504466FF00D05B0F9040068
:1044200002F0F0FA294602F07BFC1849034600220C
:104430008D7801204DB1012D0DD0022D0AD1CB7800
:104440000A2B0FD2608988801BE0114DAB4201DD41
:104450008870227470BD13F1FF4FFBD38A70CA704D
:10446000207470BD322B03D320748A70CA7008E0A8
:10447000B4F90A00B1F90430984202D08A70CA70C7
:104480002274C878401CC87070BD000078000020FD
:10449000CDCCCC3DC006010E1C20FFF7CEBBC00624
:1044A000010E1B20FFF7C9BBBC2801D301210EE080
:1044B000622801D22A2801D3022108E0142801D35E
:1044C000042104E00A2801D3052100E006211A2076
:1044D000FFF7B3BB10B504464FF47A70844201D99C
:1044E000044602E0042C00D20424B0FBF4F0401E89
:1044F000C1B21920FFF7A1FB6008BDE81040FFF72B
:10450000D3BF00003EB500241048009401940294EB
:104510000D498460016004730475012505614FF441
:1045200060214460C161FEF7DFF808B1FDF72EFF9E
:10453000CDE90045694605480294FEF757F8002882
:1045400001D0FDF723FF3EBD00240140780100208B
:104550002DE9F04186B00024334800940194029480
:104560000394816941F020018161816901F020019A
:104570000491816941F004018161816901F00401C4
:104580000491816941F0080181618069274F00F041
:104590000800049000224FF40C613846FEF7C3FA7D
:1045A000DFF88C80002243F2E0314046FEF7BBFA90
:1045B000202000901F48CDE9010469463846FEF7E7
:1045C000BDF9C02001250226CDE90005CDE902464E
:1045D00069463846FEF7B2F94FF44E50009001AAF2
:1045E000112082E8510069464046FEF7A7F9E8022B
:1045F000CDE90005CDE9025669463846FEF79EF939
:104600001020CDE90004694640460294FEF796F971
:104610006020CDE90005CDE9024669464046FEF737
:104620008DF906B0BDE8F08100100240000801409D
:10463000000C01400000111010B586B0002418488D
:104640000094019402940394049414490594016025
:1046500040F2CF21C0E9011442F20F71C0E9031406
:1046600044618461FEF72EFE08B1FDF78FFE4FF422
:104670008050009069460A48FEF7AEFE08B1FDF78B
:1046800085FE049404A906480594FEF7E7FD00287A
:1046900001D0FDF77BFE06B010BD0000002C0140EC
:1046A000A801002010B586B000241748009401949A
:1046B0000294039404944FF080410594016041F604
:1046C0001F41C0E9011442F20F71C0E90314846173
:1046D000FEF7F8FD08B1FDF759FE4FF48050009049
:1046E00069460948FEF778FE08B1FDF74FFE0494CD
:1046F00004A905480594FEF7B1FD002801D0FDF797
:1047000045FE06B010BD0000F00100200C4810B5B9
:104710000A4901604FF4E1314160002181600C22BF
:10472000C160C0E904128161C161FFF799F80028F6
:1047300003D0BDE81040FDF729BE10BD0038014090
:10474000380200200C4810B50A4901604FF4165198
:104750004160002181600C22C160C0E904128161C6
:10476000C161FFF77DF8002803D0BDE81040FDF7D8
:104770000DBE10BD0048004080020020FEE7FEE7AD
:1047800010B50021074C0A46002004EBC1131A544F
:10479000401CC0B28028FAD3491CC9B20829F3D3FF
:1047A00010BD0000C8020020F0B50B4424E0044610
:1047B00085181DE07F2C19D8002917DB3F2915DC4F
:1047C000CE1701EB56764FEAE60C0D4F26F00706A2
:1047D00007EBCC172744A1EB060E97F800C0012683
:1047E00006FA0EF62CEA060C87F800C0641C24B208
:1047F000A542DFDC491C09B28B42D8DCF0BD0000C9
:10480000C802002010B500204FF47A720021491C24
:104810009142FCD3401C9042F8D3012000F014FADE
:10482000BDE81040012000F017BA70B5002406461C
:10483000802525FA04F0304000D0012000F00CFA69
:10484000012000F001FA002000F0FEF9641CE4B23F
:10485000082CEED3012000F0F7F9BDE870400020ED
:1048600000F0F2B910B5012000F0F6F9012000F0D7
:10487000EBF9002000F0F0F9BDE81040002000F056
:10488000E3B910B5002000F0E7F9012000F0DCF9F1
:10489000BDE81040012000F0DFB910B5FFF7B2FF0E
:1048A000AE2000F0E1F9D52000F0DEF9802000F024
:1048B000DBF9A82000F0D8F93F2000F0D5F9D3208B
:1048C00000F0D2F9002000F0CFF9402000F0CCF940
:1048D000A12000F0C9F9C82000F0C6F9DA2000F0E4
:1048E000C3F9122000F0C0F9812000F0BDF9CF20FB
:1048F00000F0BAF9D92000F0B7F9F12000F0B4F9CE
:10490000DB2000F0B1F9302000F0AEF9A42000F077
:10491000ABF9A62000F0A8F98D2000F0A5F914202D
:1049200000F0A2F9AF2000F09FF9FFF729FFBDE8E2
:10493000104000F075B90246012000E05043491EC6
:10494000FCD2704710B50C4640F0B00000F08CF976
:10495000102040EA141000F087F904F00F00BDE8C1
:10496000104000F081B9000008B5082B0DD0062BCF
:104970000AD10A4B02EB420203EB4202C03A009218
:104980000823062200F0B4F808BD054B03EB021221
:10499000A2F50072102300920822F3E78C7300083E
:1049A0009C6D00082DE9FC5F002490468B468246F2
:1049B0002546DFF87490019430E001A90855641C85
:1049C000E4B2022C28D30024264606E0384601A98A
:1049D000FBF728FE68B1761CF6B2C6EBC60000EB0A
:1049E000800101EB0900074610A1FBF71BFE002820
:1049F000ECD1C6EBC60000EB800101EB0900C01C46
:104A00000090681C41080AEB01101038102300B216
:104A10001A46594600F06CF86D1CEDB218F8050006
:104A20000028CAD1BDE8FC9FC67500080000000040
:104A30002DE9FF5F82B014461D46DDE911B6074639
:104A40000022134620462946DDF8408001F038FD5B
:104A5000334605D82B2238460399FFF785FF06E039
:104A60002D2238460399FFF77FFF85F00045204649
:104A7000294601F093FB824601F0D4FB22462B46E7
:104A800001F0AEFD05460C4659460A20FFF753FFDC
:104A9000814601F0C7FB2A46234601F013FC01F0D2
:104AA000B3F801F07BFBB0FBF9F1044601EB0A021D
:104AB000B81900B243460096039900F077F808F160
:104AC000010000FB067000B233462E220399FFF767
:104AD0004BFF08F1020000FB067000B25B46224665
:104AE0000096039900F062F806B0BDE8F09F000060
:104AF0002DE9F04F1F4616460D4682460024FFF76B
:104B000053FE7F1EF81707EB50700121DFF898B0B5
:104B100001EBE00743E000203DE000BF0AEB0003AB
:104B20007F2B36D8E91705EB5171CA1021F0070128
:104B3000691A002D03DA521E083112B209B202EBD3
:104B40000409B9F1070F0ED8099A04FB06F80244CC
:104B50000BEBC91E18F802201EF803C08A404CEA6D
:104B6000020C0EF803C009F10102072A11D80BEB61
:104B7000C91202EB0308099A04FB06FC024498F8E8
:104B800080301CF80220C1F10801CA40134388F8A4
:104B90008030401CC0B2B042C0D3641CE4B2A74213
:104BA000B9DCBDE8F08F0000C80200202DE9F04715
:104BB00000241D4690468A4681460A27089E14E036
:104BC000291B0A20491EFFF7B6FEB8FBF0F0B0FB28
:104BD000F7F107FB110204FB069000B23346514681
:104BE0003032FFF7C1FE641CE4B2AC42E8D3BDE84A
:104BF000F0872DE9F0411E461546884607460024F9
:104C000008E004FB067000B233464146FFF7ACFEF5
:104C1000641CE4B22A5D002AF3D1BDE8F0810000F3
:104C200070B5084D002400212046FFF78BFE05EBF0
:104C3000C410802100F029F8641CE4B2082CF2D3DF
:104C400070BD0000C802002002464FF48071014888
:104C5000FDF769BF000C014002464FF400710148A6
:104C6000FDF761BF000C014010B50446FFF7FAFDE7
:104C70007820FFF7DAFD0020FFF7D7FD2046FFF789
:104C8000D4FDBDE81040FFF7FCBD70B50D460646EB
:104C9000FFF7E8FD7820FFF7C8FD4020FFF7C5FDCE
:104CA000002404E0305DFFF7C0FD641CE4B2AC42B8
:104CB000F8D3BDE87040FFF7E4BD0000FEB5534CEB
:104CC000E07902283ED052A201210846FFF76AFE91
:104CD000E079002838D0012879D0022873D14EA27B
:104CE00010210120FFF75EFE62894DA14E48FBF7BF
:104CF00087FA08234C4A10212820FFF77AFF4BA29D
:104D000020210120FFF74EFEA2894AA14648FBF769
:104D100077FA0823444A20212820FFF76AFF46A299
:104D200030210120FFF73EFEE2893DA13E48FBF71E
:104D300067FA08233C4A3021282003B0BDE8F04040
:104D4000FFF757BF3EA2BFE73048243001780091FB
:104D5000437882783CA13448FBF752FA0823324A60
:104D600001212820FFF745FF3BA210210120FFF77A
:104D700019FE2D4E143E307C012826D038A2102179
:104D80002820FFF70FFE37A230210120FFF70AFE8F
:104D900008250095022330212820F268FFF706FF3E
:104DA0001DA220210120FFF7FDFD206A01F00EFD6C
:104DB00001220223CDE9003202460B460295202152
:104DC0002820FFF735FEFEBD01E028A2D7E717A295
:104DD00020210120FFF7E6FD227816A11248FBF7FB
:104DE0000FFA0823104A20212820FFF702FF12A201
:104DF00020214120FFF7D6FD627809A10A48FBF780
:104E0000FFF908232021084A692096E700000020C6
:104E1000D7D4B6AF00000000CEC2B6C8A3BA000017
:104E20002564202000000000B0000020D0C4C2CAC9
:104E3000A3BA000025642000D1AAD1F5A3BA0000CE
:104E4000E3D0D6B500000000253032643A25303278
:104E5000643A253032642000B5F8B5B9A3BA000031
:104E6000B7F10000B2BDCAFDA3BA0000CAC7000076
:104E700070470000FEB50646014600240D48FBF7CA
:104E800032FB050012D03046FBF763FB28446A462C
:104E9000C01C03E01155641CE4B2401C01782C29AD
:104EA000F8D11046FBF712FB00B2FEBD4FF0FF3009
:104EB000FEBD0000C8060020704700002DE9F0414B
:104EC000184C8AB0207A142804D2401C20720AB0F0
:104ED000BDE8F08100202072E06901F077FC074610
:104EE0008846A06901F072FC05460E46206A01F072
:104EF0006DFC024606A80B4680E8E001607801AF31
:104F0000A6792579A17887E8630020780090064982
:104F10000648FBF775F90AB00448BDE8F041FDF713
:104F2000CBB900000000002074830008B00000200E
:104F30001FB5002001904020009003200390694697
:104F40000148FDF7FBFC1FBD000C01401FB501200F
:104F50000190402000900320039069460148FDF72E
:104F6000EDFC1FBD000C0140FDF7E8BD30B593B06E
:104F700028216846FBF72EFB14210AA8FBF72AFB21
:104F8000002501200F9510951195010412958DE8CB
:104F9000230004904FF4E010CDE908100224079498
:104FA0006846FDF7B5FF08B172B6FEE70AA90F2003
:104FB00081E831004FF48060CDE90D0502210AA897
:104FC000FDF7CAFE08B172B6FEE74FF4004011903B
:104FD0000F940FA8FDF74AFE002801D072B6FEE735
:104FE00013B030BD704700000148FEF764BA0000FE
:104FF000A80100200148FEF75EBA0000F001002081
:10500000F0B50268194B1A4C1A4D4FF08047984280
:1050100005D0B84203D0A04201D0A84203D122F06B
:1050200070064A683243984205D0B84203D0A04285
:1050300001D0A84203D122F44074CA6822434C69CB
:1050400022F08002224302608A68C2620A68826299
:10505000984201D109690163012141610169C907D0
:1050600003D0016921F001010161F0BD002C014074
:10507000000400400008004010B5846842EA0322A2
:1050800024F47F440A432243826010BD826822F0E8
:1050900070020A4342F007018160704710B5036A4D
:1050A000046A24F001040462846924F0F00444EAF0
:1050B000021423F00A020A438461026210BD10B593
:1050C000036A046A24F010040462846923F0A003D4
:1050D00024F4704444EA023243EA0111826101621D
:1050E00010BD10B5406A0021C185C184FEF780FA69
:1050F00010BD01680C3151E8002F22F4907241E894
:105100000023002BF5D10168143151E8002F22F063
:10511000010241E80023002BF5D1016B012909D1DF
:1051200001680C3151E8002F22F0100241E8002301
:10513000002BF5D1202180F8421000210163704737
:1051400008B590F84210222901D0022008BD8268DB
:105150004FF480539A4201D1016921B1816A9A4288
:105160001BD04AB10AE00268816A5268C2F30802A1
:105170000A80816A891C08E0026972B1026852687B
:1051800002F07F020A70816A491C8162C18D491E4A
:105190000904090CC18503D01BE002685268F1E7DD
:1051A0000168CA6822F02002CA600168CA6822F455
:1051B0008072CA6001684A6922F001024A612021B6
:1051C00080F8421000214163026B012A03D0FEF7F0
:1051D000F5FB002008BD016301680C3151E8002F88
:1051E00022F0100241E80023002BF5D101680A6883
:1051F000D20602D50A6849680091818DFEF7F7F959
:10520000E7E7000070B5044600680169E26821F430
:105210004051114301612169A06808436169084355
:105220002168CA6841F20C639A430243CA6020684D
:105230004169A26921F44071114341611E4920680E
:10524000884202D1FDF72EFE01E0FDF71BFE00EBC8
:10525000C00101EB0012606864218000B2FBF0F332
:10526000B3FBF1F36FF018067343B2FBF0F5B2FB3A
:10527000F0F605EB8305322303EB0515B5FBF1F5DD
:10528000B6FBF1F605F0F00505EB0615B2FBF0F6FE
:10529000B2FBF0F0B0FBF1F06FF01802504306EBF8
:1052A000800003EB0010B0FBF1F0216800F00F006C
:1052B0002844886070BD000000380140816282850A
:1052C000C28500214164222180F84210016921B188
:1052D0000168CA6842F48072CA6001684A6942F093
:1052E00001024A610068C16841F02001C1600020EC
:1052F00070472DE9F843984617460D460446089E28
:1053000024E0701C22D0FDF713FCA0EB0800B04293
:105310001AD8CEB12068C168490717D5802D15D09D
:10532000402D13D00168C94309070FD40168002537
:10533000406800902046FFF7DCFE0820606484F897
:1053400040500120BDE8F8830320FBE72068006897
:1053500035EA000004D00020B842D2D00020F1E7A6
:105360000120F9E70148FEF745B9000038020020A6
:105370000148FEF73FB900008002002010B5044646
:10538000FBF7E7F8214682B2BDE810404FF6FF7305
:105390000148FEF771BB000038020020C821014817
:1053A000FBF7F6B890070020FEE7490050EAC1205D
:1053B00018BF04204A0D18BF40F0010040F2FF72F0
:1053C000B2EB515F08BF40F00200012808BF052082
:1053D00070470907090E002804DB00F1E02080F87F
:1053E0000014704700F00F0000F1E02080F8141D59
:1053F000704730380A2801D20120704700207047DA
:10540000FDF7A4FBFFF7B2FDFFF7A2F8FFF77EF967
:10541000FFF778F8FFF710F9FFF744F9FFF792F973
:10542000FFF73BFAFCF7BAFE00F0B8F8FCF7E6F934
:10543000FEF706FFFCF7ACFF1448FDF7A1FF144C84
:1054400013482430FCF736FAFCF79EFB2062114823
:10545000FEF7ACFD0F48FEF7DDFF6420FCF75CFDB6
:10546000FFF72CFDE079012804D10949491C481EA9
:10547000FEF7D6FC06491C31081FFCF793FFFCF72A
:1054800085F9FFF71BFCFFF7CBFBD9E7A80100204C
:10549000000000209C00002010B50446FEF76EFCC2
:1054A000AE20FEF745FCFEF799FC68B92046FEF7F2
:1054B0003FFCFEF793FC38B9FEF760FCAF20FEF727
:1054C00037FCFEF78BFC18B1FEF770FC002010BD16
:1054D0000020FEF7FFFB0446FEF7E6FBFEF766FC46
:1054E000204610BD70B50C460546FEF747FCAE20C1
:1054F000FEF71EFCFEF772FC58B92846FEF718FCB2
:10550000FEF76CFC28B92046FEF712FCFEF766FC9D
:1055100018B1FEF74BFC002070BDFEF747FC0120E0
:1055200070BD70B505460C460020FFF7B5FF0120A1
:10553000FFF7B2FFFEF722FCAE20FEF7F9FBFEF705
:105540004DFC38BB2846FEF7F3FBFEF747FC08BBD3
:10555000FEF714FCAF20FEF7EBFBFEF73FFCC8B9EB
:105560000120FEF7B7FB20700120FEF7B3FB60704F
:105570000120FEF7AFFBA0700120FEF7ABFBE0704F
:105580000120FEF7A7FB20710020FEF7A3FB60714E
:10559000FEF70CFCBDE87040FEF708BC2DE9FE43A9
:1055A000FEF77AFB00F078F8C0210220FFF79AFF9F
:1055B00000210320FFF796FF00210420FFF792FF50
:1055C00000210520FFF78EFF00210620FFF78AFF4C
:1055D0000F210820FFF786FF03210920FFF782FF34
:1055E00027210A20FFF77EFF24210C20FFF77AFFF6
:1055F00024210D20FFF776FF7F211020FFF772FF97
:10560000214F224E224D00244FF4FA78D7F8100192
:105610000128FBD01E4907202031FFF782FF1C49DB
:10562000203108784A788007800B40EA02208A7887
:10563000104346F82400CA780B799207920B4979F7
:1056400042EA03220A43134941F824206968884248
:1056500000D26860A968884200D9A860641C4445EB
:10566000D4DB0B4A56F82400521C02F11301A86146
:10567000501E8DE807000B1F044A4146054800F004
:105680002FF8BDE8FE83000000802142882700201B
:1056900044000020B81F002010B540210920FFF76A
:1056A00021FF4021BDE810400920FFF71BBF2DE975
:1056B000F8418046DDE90706009017460C46099D33
:1056C000404600F0EDF933463A462146404600F0A8
:1056D0001DFA2068A84200DB28462060BDE8F8815A
:1056E0002DE9FF4FBFB00E4600211C4608464C9DD9
:1056F00004E03F9A52F82020401C1144B042F8DBED
:10570000B1FBF6F20020E14906E03F9B53F8203060
:105710009B1A41F82030401CB042F6DB00204FF4C9
:10572000F87C00BF01EB800251F820305768E34657
:105730003B44D2E902723A441A44D31702EB937203
:10574000921041F82020401C5845EBDBD04A002045
:105750004FF4F77301EB800751F820C07F6889464A
:10576000A7EB0C0742F82070401C9842F2DD0020A5
:1057700002EB800752F820107F689A46394401EB0B
:10578000D171491042F82010401C5045F0DBC14F48
:105790000020964600230146421D08E0A1EB0008C8
:1057A0005EF821C037F81880491C0CFB1833914271
:1057B000F4DB40F27A4193FBF1F14EF82010401CEB
:1057C0007346B0F5F47FE5DD002210464FEA0A0784
:1057D00053F82010002900DC4942401C0A4450457F
:1057E000F6DD40F2EF1392FBF3F00822CDE9000260
:1057F00005210291A64A3DA912A8FFF758FF0022F1
:105800003D9B9646022B1EDB012112A80AE000BF39
:1058100000EB810C50F821705CF804CC491CA7EB1C
:105820000C073A449942F3DB5B1E92FBF3F141F221
:10583000707292FBF1F24D990A604E9A012111703B
:1058400000213D9F0FE04D99934808604E9880F8E5
:1058500000E043B0BDE8F08F50F8213024AA9B1C33
:1058600042F82130491CB942F6DB0020C8460BE063
:105870003F9951F8201048F82010419951F8202004
:10588000864941F82020401CB042F1DB002213463B
:1058900028E000BF24A84FF0010950F823004FF082
:1058A0008076411D51451CDCA0F1050CBCF1000FB8
:1058B00017DD401F0FE000BF58F820C0B44509DADB
:1058C000B9F1000F01D04FF0000966460DF10C0C44
:1058D0004CF82300401C8842EEDBB9F1000F00D1E8
:1058E000521C5B1CBB42D5DB022A04DA6A482060EA
:1058F00085F800E0ADE7DFF8A4C1002008EB8001E7
:1059000058F820304E68E1463344D1E90261314411
:105910001944CB1701EB9371891048F820100CEB58
:1059200080035CF820605F683E44D3E902733B4427
:105930003344DE1703EB96739B104CF82030401C69
:105940005845DBDB00200DF1D40B3E9000234BF8D3
:105950002030401C0528F9DB00204FF4FA7309E0E1
:1059600003A951F82010994203DD4B482060002024
:105970008AE0401C9042F3DB0023A2F1010A61E0BF
:1059800003A800EB830650F823E076684FF07F42CF
:10599000A6EB0E0011463B900A2852DD7046CC461D
:1059A0000DE000BF58F820708F4201DD39463C9071
:1059B0005CF82070974201DD3A463390401C8642E5
:1059C000F0DC59F826C059F82E000290ACEB00002C
:1059D000DDF8CCC0ACEB0E0778433B9F90FBF7F7AC
:1059E000029807EB000C339F59F82770A7EB0C07C0
:1059F000219758F8260058F82E60DDF8F0C0801B7B
:105A0000ACEB0E0778433B9F90FBF7F03044339E9E
:105A1000219F58F826604F43301A5043F911C011A6
:105A200000280EDD3E9A052A0BDA51B101EB810107
:105A3000890091FBF0F23E984BF820203E98401CE4
:105A40003E905B1C53459BDB58463E9900F094F812
:105A50003E9800EBD070401001280ADD0BEB80026D
:105A60005BF8200052F8042C104400EBD07040107A
:105A700001E05BF82000C11EB529BFF476AF0549EF
:105A80003E31085C206001202870E2E618100020FA
:105A900058080020AC81000819FCFFFFE81700201F
:105AA0002DE9F043814600240120DDF81C805E1EB4
:105AB0000C6026E052F82070474521DD02EB80049F
:105AC00054F8044CA7421BDD012500E06D1C44196D
:105AD0009C4203DA52F824C06745F7D0054452F8D7
